{
  "_format": "hh-sol-artifact-1",
  "contractName": "NFTMinter",
  "sourceName": "contracts/NFTMinter.sol",
  "abi": [
    {
      "inputs": [
        {
          "internalType": "address",
          "name": "_paymentToken",
          "type": "address"
        }
      ],
      "stateMutability": "nonpayable",
      "type": "constructor"
    },
    {
      "inputs": [],
      "name": "ERC721EnumerableForbiddenBatchMint",
      "type": "error"
    },
    {
      "inputs": [
        {
          "internalType": "address",
          "name": "sender",
          "type": "address"
        },
        {
          "internalType": "uint256",
          "name": "tokenId",
          "type": "uint256"
        },
        {
          "internalType": "address",
          "name": "owner",
          "type": "address"
        }
      ],
      "name": "ERC721IncorrectOwner",
      "type": "error"
    },
    {
      "inputs": [
        {
          "internalType": "address",
          "name": "operator",
          "type": "address"
        },
        {
          "internalType": "uint256",
          "name": "tokenId",
          "type": "uint256"
        }
      ],
      "name": "ERC721InsufficientApproval",
      "type": "error"
    },
    {
      "inputs": [
        {
          "internalType": "address",
          "name": "approver",
          "type": "address"
        }
      ],
      "name": "ERC721InvalidApprover",
      "type": "error"
    },
    {
      "inputs": [
        {
          "internalType": "address",
          "name": "operator",
          "type": "address"
        }
      ],
      "name": "ERC721InvalidOperator",
      "type": "error"
    },
    {
      "inputs": [
        {
          "internalType": "address",
          "name": "owner",
          "type": "address"
        }
      ],
      "name": "ERC721InvalidOwner",
      "type": "error"
    },
    {
      "inputs": [
        {
          "internalType": "address",
          "name": "receiver",
          "type": "address"
        }
      ],
      "name": "ERC721InvalidReceiver",
      "type": "error"
    },
    {
      "inputs": [
        {
          "internalType": "address",
          "name": "sender",
          "type": "address"
        }
      ],
      "name": "ERC721InvalidSender",
      "type": "error"
    },
    {
      "inputs": [
        {
          "internalType": "uint256",
          "name": "tokenId",
          "type": "uint256"
        }
      ],
      "name": "ERC721NonexistentToken",
      "type": "error"
    },
    {
      "inputs": [
        {
          "internalType": "address",
          "name": "owner",
          "type": "address"
        },
        {
          "internalType": "uint256",
          "name": "index",
          "type": "uint256"
        }
      ],
      "name": "ERC721OutOfBoundsIndex",
      "type": "error"
    },
    {
      "anonymous": false,
      "inputs": [
        {
          "indexed": true,
          "internalType": "address",
          "name": "owner",
          "type": "address"
        },
        {
          "indexed": true,
          "internalType": "address",
          "name": "approved",
          "type": "address"
        },
        {
          "indexed": true,
          "internalType": "uint256",
          "name": "tokenId",
          "type": "uint256"
        }
      ],
      "name": "Approval",
      "type": "event"
    },
    {
      "anonymous": false,
      "inputs": [
        {
          "indexed": true,
          "internalType": "address",
          "name": "owner",
          "type": "address"
        },
        {
          "indexed": true,
          "internalType": "address",
          "name": "operator",
          "type": "address"
        },
        {
          "indexed": false,
          "internalType": "bool",
          "name": "approved",
          "type": "bool"
        }
      ],
      "name": "ApprovalForAll",
      "type": "event"
    },
    {
      "anonymous": false,
      "inputs": [
        {
          "indexed": true,
          "internalType": "address",
          "name": "from",
          "type": "address"
        },
        {
          "indexed": true,
          "internalType": "address",
          "name": "to",
          "type": "address"
        },
        {
          "indexed": true,
          "internalType": "uint256",
          "name": "tokenId",
          "type": "uint256"
        }
      ],
      "name": "Transfer",
      "type": "event"
    },
    {
      "inputs": [
        {
          "internalType": "address",
          "name": "to",
          "type": "address"
        },
        {
          "internalType": "uint256",
          "name": "tokenId",
          "type": "uint256"
        }
      ],
      "name": "approve",
      "outputs": [],
      "stateMutability": "nonpayable",
      "type": "function"
    },
    {
      "inputs": [
        {
          "internalType": "address",
          "name": "owner",
          "type": "address"
        }
      ],
      "name": "balanceOf",
      "outputs": [
        {
          "internalType": "uint256",
          "name": "",
          "type": "uint256"
        }
      ],
      "stateMutability": "view",
      "type": "function"
    },
    {
      "inputs": [
        {
          "internalType": "uint256",
          "name": "tokenId",
          "type": "uint256"
        }
      ],
      "name": "getApproved",
      "outputs": [
        {
          "internalType": "address",
          "name": "",
          "type": "address"
        }
      ],
      "stateMutability": "view",
      "type": "function"
    },
    {
      "inputs": [
        {
          "internalType": "address",
          "name": "owner",
          "type": "address"
        },
        {
          "internalType": "address",
          "name": "operator",
          "type": "address"
        }
      ],
      "name": "isApprovedForAll",
      "outputs": [
        {
          "internalType": "bool",
          "name": "",
          "type": "bool"
        }
      ],
      "stateMutability": "view",
      "type": "function"
    },
    {
      "inputs": [],
      "name": "mintNFT",
      "outputs": [],
      "stateMutability": "nonpayable",
      "type": "function"
    },
    {
      "inputs": [],
      "name": "name",
      "outputs": [
        {
          "internalType": "string",
          "name": "",
          "type": "string"
        }
      ],
      "stateMutability": "view",
      "type": "function"
    },
    {
      "inputs": [],
      "name": "owner",
      "outputs": [
        {
          "internalType": "address",
          "name": "",
          "type": "address"
        }
      ],
      "stateMutability": "view",
      "type": "function"
    },
    {
      "inputs": [
        {
          "internalType": "uint256",
          "name": "tokenId",
          "type": "uint256"
        }
      ],
      "name": "ownerOf",
      "outputs": [
        {
          "internalType": "address",
          "name": "",
          "type": "address"
        }
      ],
      "stateMutability": "view",
      "type": "function"
    },
    {
      "inputs": [],
      "name": "paymentToken",
      "outputs": [
        {
          "internalType": "contract IERC20",
          "name": "",
          "type": "address"
        }
      ],
      "stateMutability": "view",
      "type": "function"
    },
    {
      "inputs": [
        {
          "internalType": "address",
          "name": "from",
          "type": "address"
        },
        {
          "internalType": "address",
          "name": "to",
          "type": "address"
        },
        {
          "internalType": "uint256",
          "name": "tokenId",
          "type": "uint256"
        }
      ],
      "name": "safeTransferFrom",
      "outputs": [],
      "stateMutability": "nonpayable",
      "type": "function"
    },
    {
      "inputs": [
        {
          "internalType": "address",
          "name": "from",
          "type": "address"
        },
        {
          "internalType": "address",
          "name": "to",
          "type": "address"
        },
        {
          "internalType": "uint256",
          "name": "tokenId",
          "type": "uint256"
        },
        {
          "internalType": "bytes",
          "name": "data",
          "type": "bytes"
        }
      ],
      "name": "safeTransferFrom",
      "outputs": [],
      "stateMutability": "nonpayable",
      "type": "function"
    },
    {
      "inputs": [
        {
          "internalType": "address",
          "name": "operator",
          "type": "address"
        },
        {
          "internalType": "bool",
          "name": "approved",
          "type": "bool"
        }
      ],
      "name": "setApprovalForAll",
      "outputs": [],
      "stateMutability": "nonpayable",
      "type": "function"
    },
    {
      "inputs": [
        {
          "internalType": "bytes4",
          "name": "interfaceId",
          "type": "bytes4"
        }
      ],
      "name": "supportsInterface",
      "outputs": [
        {
          "internalType": "bool",
          "name": "",
          "type": "bool"
        }
      ],
      "stateMutability": "view",
      "type": "function"
    },
    {
      "inputs": [],
      "name": "symbol",
      "outputs": [
        {
          "internalType": "string",
          "name": "",
          "type": "string"
        }
      ],
      "stateMutability": "view",
      "type": "function"
    },
    {
      "inputs": [
        {
          "internalType": "uint256",
          "name": "index",
          "type": "uint256"
        }
      ],
      "name": "tokenByIndex",
      "outputs": [
        {
          "internalType": "uint256",
          "name": "",
          "type": "uint256"
        }
      ],
      "stateMutability": "view",
      "type": "function"
    },
    {
      "inputs": [
        {
          "internalType": "address",
          "name": "owner",
          "type": "address"
        },
        {
          "internalType": "uint256",
          "name": "index",
          "type": "uint256"
        }
      ],
      "name": "tokenOfOwnerByIndex",
      "outputs": [
        {
          "internalType": "uint256",
          "name": "",
          "type": "uint256"
        }
      ],
      "stateMutability": "view",
      "type": "function"
    },
    {
      "inputs": [
        {
          "internalType": "uint256",
          "name": "tokenId",
          "type": "uint256"
        }
      ],
      "name": "tokenURI",
      "outputs": [
        {
          "internalType": "string",
          "name": "",
          "type": "string"
        }
      ],
      "stateMutability": "view",
      "type": "function"
    },
    {
      "inputs": [],
      "name": "totalSupply",
      "outputs": [
        {
          "internalType": "uint256",
          "name": "",
          "type": "uint256"
        }
      ],
      "stateMutability": "view",
      "type": "function"
    },
    {
      "inputs": [
        {
          "internalType": "address",
          "name": "from",
          "type": "address"
        },
        {
          "internalType": "address",
          "name": "to",
          "type": "address"
        },
        {
          "internalType": "uint256",
          "name": "tokenId",
          "type": "uint256"
        }
      ],
      "name": "transferFrom",
      "outputs": [],
      "stateMutability": "nonpayable",
      "type": "function"
    }
  ],
  "bytecode": "0x60806040523480156200001157600080fd5b5060405162002d6f38038062002d6f8339818101604052810190620000379190620001bc565b6040518060400160405280600581526020017f4d794e46540000000000000000000000000000000000000000000000000000008152506040518060400160405280600481526020017f4d4e4654000000000000000000000000000000000000000000000000000000008152508160009081620000b4919062000468565b508060019081620000c6919062000468565b50505080600b60006101000a81548173ffffffffffffffffffffffffffffffffffffffff021916908373ffffffffffffffffffffffffffffffffffffffff16021790555033600c60006101000a81548173ffffffffffffffffffffffffffffffffffffffff021916908373ffffffffffffffffffffffffffffffffffffffff160217905550506200054f565b600080fd5b600073ffffffffffffffffffffffffffffffffffffffff82169050919050565b6000620001848262000157565b9050919050565b620001968162000177565b8114620001a257600080fd5b50565b600081519050620001b6816200018b565b92915050565b600060208284031215620001d557620001d462000152565b5b6000620001e584828501620001a5565b91505092915050565b600081519050919050565b7f4e487b7100000000000000000000000000000000000000000000000000000000600052604160045260246000fd5b7f4e487b7100000000000000000000000000000000000000000000000000000000600052602260045260246000fd5b600060028204905060018216806200027057607f821691505b60208210810362000286576200028562000228565b5b50919050565b60008190508160005260206000209050919050565b60006020601f8301049050919050565b600082821b905092915050565b600060088302620002f07fffffffffffffffffffffffffffffffffffffffffffffffffffffffffffffffff82620002b1565b620002fc8683620002b1565b95508019841693508086168417925050509392505050565b6000819050919050565b6000819050919050565b600062000349620003436200033d8462000314565b6200031e565b62000314565b9050919050565b6000819050919050565b620003658362000328565b6200037d620003748262000350565b848454620002be565b825550505050565b600090565b6200039462000385565b620003a18184846200035a565b505050565b5b81811015620003c957620003bd6000826200038a565b600181019050620003a7565b5050565b601f8211156200041857620003e2816200028c565b620003ed84620002a1565b81016020851015620003fd578190505b620004156200040c85620002a1565b830182620003a6565b50505b505050565b600082821c905092915050565b60006200043d600019846008026200041d565b1980831691505092915050565b60006200045883836200042a565b9150826002028217905092915050565b6200047382620001ee565b67ffffffffffffffff8111156200048f576200048e620001f9565b5b6200049b825462000257565b620004a8828285620003cd565b600060209050601f831160018114620004e05760008415620004cb578287015190505b620004d785826200044a565b86555062000547565b601f198416620004f0866200028c565b60005b828110156200051a57848901518255600182019150602085019450602081019050620004f3565b868310156200053a578489015162000536601f8916826200042a565b8355505b6001600288020188555050505b505050505050565b612810806200055f6000396000f3fe608060405234801561001057600080fd5b50600436106101215760003560e01c806342842e0e116100ad57806395d89b411161007157806395d89b411461031c578063a22cb4651461033a578063b88d4fde14610356578063c87b56dd14610372578063e985e9c5146103a257610121565b806342842e0e146102525780634f6ccce71461026e5780636352211e1461029e57806370a08231146102ce5780638da5cb5b146102fe57610121565b806314f710fe116100f457806314f710fe146101c057806318160ddd146101ca57806323b872dd146101e85780632f745c59146102045780633013ce291461023457610121565b806301ffc9a71461012657806306fdde0314610156578063081812fc14610174578063095ea7b3146101a4575b600080fd5b610140600480360381019061013b9190611df2565b6103d2565b60405161014d9190611e3a565b60405180910390f35b61015e61044c565b60405161016b9190611ee5565b60405180910390f35b61018e60048036038101906101899190611f3d565b6104de565b60405161019b9190611fab565b60405180910390f35b6101be60048036038101906101b99190611ff2565b6104fa565b005b6101c8610510565b005b6101d261064a565b6040516101df9190612041565b60405180910390f35b61020260048036038101906101fd919061205c565b610657565b005b61021e60048036038101906102199190611ff2565b610759565b60405161022b9190612041565b60405180910390f35b61023c610802565b604051610249919061210e565b60405180910390f35b61026c6004803603810190610267919061205c565b610828565b005b61028860048036038101906102839190611f3d565b610848565b6040516102959190612041565b60405180910390f35b6102b860048036038101906102b39190611f3d565b6108be565b6040516102c59190611fab565b60405180910390f35b6102e860048036038101906102e39190612129565b6108d0565b6040516102f59190612041565b60405180910390f35b61030661098a565b6040516103139190611fab565b60405180910390f35b6103246109b0565b6040516103319190611ee5565b60405180910390f35b610354600480360381019061034f9190612182565b610a42565b005b610370600480360381019061036b91906122f7565b610a58565b005b61038c60048036038101906103879190611f3d565b610a7d565b6040516103999190611ee5565b60405180910390f35b6103bc60048036038101906103b7919061237a565b610ae6565b6040516103c99190611e3a565b60405180910390f35b60007f780e9d63000000000000000000000000000000000000000000000000000000007bffffffffffffffffffffffffffffffffffffffffffffffffffffffff1916827bffffffffffffffffffffffffffffffffffffffffffffffffffffffff19161480610445575061044482610b7a565b5b9050919050565b60606000805461045b906123e9565b80601f0160208091040260200160405190810160405280929190818152602001828054610487906123e9565b80156104d45780601f106104a9576101008083540402835291602001916104d4565b820191906000526020600020905b8154815290600101906020018083116104b757829003601f168201915b5050505050905090565b60006104e982610c5c565b506104f382610ce4565b9050919050565b61050c8282610507610d21565b610d29565b5050565b6000600a600081548092919061052590612449565b9190505590506105353382610d3b565b600068056bc75e2d631000009050600b60009054906101000a900473ffffffffffffffffffffffffffffffffffffffff1673ffffffffffffffffffffffffffffffffffffffff166323b872dd33600c60009054906101000a900473ffffffffffffffffffffffffffffffffffffffff16846040518463ffffffff1660e01b81526004016105c493929190612491565b6020604051808303816000875af11580156105e3573d6000803e3d6000fd5b505050506040513d601f19601f8201168201806040525081019061060791906124dd565b610646576040517f08c379a000000000000000000000000000000000000000000000000000000000815260040161063d90612556565b60405180910390fd5b5050565b6000600880549050905090565b600073ffffffffffffffffffffffffffffffffffffffff168273ffffffffffffffffffffffffffffffffffffffff16036106c95760006040517f64a0ae920000000000000000000000000000000000000000000000000000000081526004016106c09190611fab565b60405180910390fd5b60006106dd83836106d8610d21565b610d59565b90508373ffffffffffffffffffffffffffffffffffffffff168173ffffffffffffffffffffffffffffffffffffffff1614610753578382826040517f64283d7b00000000000000000000000000000000000000000000000000000000815260040161074a93929190612576565b60405180910390fd5b50505050565b6000610764836108d0565b82106107a95782826040517fa57d13dc0000000000000000000000000000000000000000000000000000000081526004016107a09291906125ad565b60405180910390fd5b600660008473ffffffffffffffffffffffffffffffffffffffff1673ffffffffffffffffffffffffffffffffffffffff168152602001908152602001600020600083815260200190815260200160002054905092915050565b600b60009054906101000a900473ffffffffffffffffffffffffffffffffffffffff1681565b61084383838360405180602001604052806000815250610a58565b505050565b600061085261064a565b8210610898576000826040517fa57d13dc00000000000000000000000000000000000000000000000000000000815260040161088f9291906125ad565b60405180910390fd5b600882815481106108ac576108ab6125d6565b5b90600052602060002001549050919050565b60006108c982610c5c565b9050919050565b60008073ffffffffffffffffffffffffffffffffffffffff168273ffffffffffffffffffffffffffffffffffffffff16036109435760006040517f89c62b6400000000000000000000000000000000000000000000000000000000815260040161093a9190611fab565b60405180910390fd5b600360008373ffffffffffffffffffffffffffffffffffffffff1673ffffffffffffffffffffffffffffffffffffffff168152602001908152602001600020549050919050565b600c60009054906101000a900473ffffffffffffffffffffffffffffffffffffffff1681565b6060600180546109bf906123e9565b80601f01602080910402602001604051908101604052809291908181526020018280546109eb906123e9565b8015610a385780601f10610a0d57610100808354040283529160200191610a38565b820191906000526020600020905b815481529060010190602001808311610a1b57829003601f168201915b5050505050905090565b610a54610a4d610d21565b8383610e76565b5050565b610a63848484610657565b610a77610a6e610d21565b85858585610fe5565b50505050565b6060610a8882610c5c565b506000610a93611196565b90506000815111610ab35760405180602001604052806000815250610ade565b80610abd846111ad565b604051602001610ace929190612641565b6040516020818303038152906040525b915050919050565b6000600560008473ffffffffffffffffffffffffffffffffffffffff1673ffffffffffffffffffffffffffffffffffffffff16815260200190815260200160002060008373ffffffffffffffffffffffffffffffffffffffff1673ffffffffffffffffffffffffffffffffffffffff16815260200190815260200160002060009054906101000a900460ff16905092915050565b60007f80ac58cd000000000000000000000000000000000000000000000000000000007bffffffffffffffffffffffffffffffffffffffffffffffffffffffff1916827bffffffffffffffffffffffffffffffffffffffffffffffffffffffff19161480610c4557507f5b5e139f000000000000000000000000000000000000000000000000000000007bffffffffffffffffffffffffffffffffffffffffffffffffffffffff1916827bffffffffffffffffffffffffffffffffffffffffffffffffffffffff1916145b80610c555750610c548261127b565b5b9050919050565b600080610c68836112e5565b9050600073ffffffffffffffffffffffffffffffffffffffff168173ffffffffffffffffffffffffffffffffffffffff1603610cdb57826040517f7e273289000000000000000000000000000000000000000000000000000000008152600401610cd29190612041565b60405180910390fd5b80915050919050565b60006004600083815260200190815260200160002060009054906101000a900473ffffffffffffffffffffffffffffffffffffffff169050919050565b600033905090565b610d368383836001611322565b505050565b610d558282604051806020016040528060008152506114e7565b5050565b600080610d6785858561150b565b9050600073ffffffffffffffffffffffffffffffffffffffff168173ffffffffffffffffffffffffffffffffffffffff1603610dab57610da684611725565b610dea565b8473ffffffffffffffffffffffffffffffffffffffff168173ffffffffffffffffffffffffffffffffffffffff1614610de957610de8818561176e565b5b5b600073ffffffffffffffffffffffffffffffffffffffff168573ffffffffffffffffffffffffffffffffffffffff1603610e2c57610e2784611859565b610e6b565b8473ffffffffffffffffffffffffffffffffffffffff168173ffffffffffffffffffffffffffffffffffffffff1614610e6a57610e69858561192a565b5b5b809150509392505050565b600073ffffffffffffffffffffffffffffffffffffffff168273ffffffffffffffffffffffffffffffffffffffff1603610ee757816040517f5b08ba18000000000000000000000000000000000000000000000000000000008152600401610ede9190611fab565b60405180910390fd5b80600560008573ffffffffffffffffffffffffffffffffffffffff1673ffffffffffffffffffffffffffffffffffffffff16815260200190815260200160002060008473ffffffffffffffffffffffffffffffffffffffff1673ffffffffffffffffffffffffffffffffffffffff16815260200190815260200160002060006101000a81548160ff0219169083151502179055508173ffffffffffffffffffffffffffffffffffffffff168373ffffffffffffffffffffffffffffffffffffffff167f17307eab39ab6107e8899845ad3d59bd9653f200f220920489ca2b5937696c3183604051610fd89190611e3a565b60405180910390a3505050565b60008373ffffffffffffffffffffffffffffffffffffffff163b111561118f578273ffffffffffffffffffffffffffffffffffffffff1663150b7a02868685856040518563ffffffff1660e01b815260040161104494939291906126ba565b6020604051808303816000875af192505050801561108057506040513d601f19601f8201168201806040525081019061107d919061271b565b60015b611104573d80600081146110b0576040519150601f19603f3d011682016040523d82523d6000602084013e6110b5565b606091505b5060008151036110fc57836040517f64a0ae920000000000000000000000000000000000000000000000000000000081526004016110f39190611fab565b60405180910390fd5b805181602001fd5b63150b7a0260e01b7bffffffffffffffffffffffffffffffffffffffffffffffffffffffff1916817bffffffffffffffffffffffffffffffffffffffffffffffffffffffff19161461118d57836040517f64a0ae920000000000000000000000000000000000000000000000000000000081526004016111849190611fab565b60405180910390fd5b505b5050505050565b606060405180602001604052806000815250905090565b6060600060016111bc846119b5565b01905060008167ffffffffffffffff8111156111db576111da6121cc565b5b6040519080825280601f01601f19166020018201604052801561120d5781602001600182028036833780820191505090505b509050600082602001820190505b600115611270578080600190039150507f3031323334353637383961626364656600000000000000000000000000000000600a86061a8153600a858161126457611263612748565b5b0494506000850361121b575b819350505050919050565b60007f01ffc9a7000000000000000000000000000000000000000000000000000000007bffffffffffffffffffffffffffffffffffffffffffffffffffffffff1916827bffffffffffffffffffffffffffffffffffffffffffffffffffffffff1916149050919050565b60006002600083815260200190815260200160002060009054906101000a900473ffffffffffffffffffffffffffffffffffffffff169050919050565b808061135b5750600073ffffffffffffffffffffffffffffffffffffffff168273ffffffffffffffffffffffffffffffffffffffff1614155b1561148f57600061136b84610c5c565b9050600073ffffffffffffffffffffffffffffffffffffffff168373ffffffffffffffffffffffffffffffffffffffff16141580156113d657508273ffffffffffffffffffffffffffffffffffffffff168173ffffffffffffffffffffffffffffffffffffffff1614155b80156113e957506113e78184610ae6565b155b1561142b57826040517fa9fbf51f0000000000000000000000000000000000000000000000000000000081526004016114229190611fab565b60405180910390fd5b811561148d57838573ffffffffffffffffffffffffffffffffffffffff168273ffffffffffffffffffffffffffffffffffffffff167f8c5be1e5ebec7d5bd14f71427d1e84f3dd0314c0f7b2291e5b200ac8c7c3b92560405160405180910390a45b505b836004600085815260200190815260200160002060006101000a81548173ffffffffffffffffffffffffffffffffffffffff021916908373ffffffffffffffffffffffffffffffffffffffff16021790555050505050565b6114f18383611b08565b6115066114fc610d21565b6000858585610fe5565b505050565b600080611517846112e5565b9050600073ffffffffffffffffffffffffffffffffffffffff168373ffffffffffffffffffffffffffffffffffffffff161461155957611558818486611c01565b5b600073ffffffffffffffffffffffffffffffffffffffff168173ffffffffffffffffffffffffffffffffffffffff16146115ea5761159b600085600080611322565b6001600360008373ffffffffffffffffffffffffffffffffffffffff1673ffffffffffffffffffffffffffffffffffffffff168152602001908152602001600020600082825403925050819055505b600073ffffffffffffffffffffffffffffffffffffffff168573ffffffffffffffffffffffffffffffffffffffff161461166d576001600360008773ffffffffffffffffffffffffffffffffffffffff1673ffffffffffffffffffffffffffffffffffffffff168152602001908152602001600020600082825401925050819055505b846002600086815260200190815260200160002060006101000a81548173ffffffffffffffffffffffffffffffffffffffff021916908373ffffffffffffffffffffffffffffffffffffffff160217905550838573ffffffffffffffffffffffffffffffffffffffff168273ffffffffffffffffffffffffffffffffffffffff167fddf252ad1be2c89b69c2b068fc378daa952ba7f163c4a11628f55a4df523b3ef60405160405180910390a4809150509392505050565b6008805490506009600083815260200190815260200160002081905550600881908060018154018082558091505060019003906000526020600020016000909190919091505550565b6000611779836108d0565b90506000600760008481526020019081526020016000205490506000600660008673ffffffffffffffffffffffffffffffffffffffff1673ffffffffffffffffffffffffffffffffffffffff16815260200190815260200160002090508282146118255760008160008581526020019081526020016000205490508082600085815260200190815260200160002081905550826007600083815260200190815260200160002081905550505b6007600085815260200190815260200160002060009055806000848152602001908152602001600020600090555050505050565b6000600160088054905061186d9190612777565b905060006009600084815260200190815260200160002054905060006008838154811061189d5761189c6125d6565b5b9060005260206000200154905080600883815481106118bf576118be6125d6565b5b90600052602060002001819055508160096000838152602001908152602001600020819055506009600085815260200190815260200160002060009055600880548061190e5761190d6127ab565b5b6001900381819060005260206000200160009055905550505050565b60006001611937846108d0565b6119419190612777565b905081600660008573ffffffffffffffffffffffffffffffffffffffff1673ffffffffffffffffffffffffffffffffffffffff168152602001908152602001600020600083815260200190815260200160002081905550806007600084815260200190815260200160002081905550505050565b600080600090507a184f03e93ff9f4daa797ed6e38ed64bf6a1f0100000000000000008310611a13577a184f03e93ff9f4daa797ed6e38ed64bf6a1f0100000000000000008381611a0957611a08612748565b5b0492506040810190505b6d04ee2d6d415b85acef81000000008310611a50576d04ee2d6d415b85acef81000000008381611a4657611a45612748565b5b0492506020810190505b662386f26fc100008310611a7f57662386f26fc100008381611a7557611a74612748565b5b0492506010810190505b6305f5e1008310611aa8576305f5e1008381611a9e57611a9d612748565b5b0492506008810190505b6127108310611acd576127108381611ac357611ac2612748565b5b0492506004810190505b60648310611af05760648381611ae657611ae5612748565b5b0492506002810190505b600a8310611aff576001810190505b80915050919050565b600073ffffffffffffffffffffffffffffffffffffffff168273ffffffffffffffffffffffffffffffffffffffff1603611b7a5760006040517f64a0ae92000000000000000000000000000000000000000000000000000000008152600401611b719190611fab565b60405180910390fd5b6000611b8883836000610d59565b9050600073ffffffffffffffffffffffffffffffffffffffff168173ffffffffffffffffffffffffffffffffffffffff1614611bfc5760006040517f73c6ac6e000000000000000000000000000000000000000000000000000000008152600401611bf39190611fab565b60405180910390fd5b505050565b611c0c838383611cc5565b611cc057600073ffffffffffffffffffffffffffffffffffffffff168373ffffffffffffffffffffffffffffffffffffffff1603611c8157806040517f7e273289000000000000000000000000000000000000000000000000000000008152600401611c789190612041565b60405180910390fd5b81816040517f177e802f000000000000000000000000000000000000000000000000000000008152600401611cb79291906125ad565b60405180910390fd5b505050565b60008073ffffffffffffffffffffffffffffffffffffffff168373ffffffffffffffffffffffffffffffffffffffff1614158015611d7d57508273ffffffffffffffffffffffffffffffffffffffff168473ffffffffffffffffffffffffffffffffffffffff161480611d3e5750611d3d8484610ae6565b5b80611d7c57508273ffffffffffffffffffffffffffffffffffffffff16611d6483610ce4565b73ffffffffffffffffffffffffffffffffffffffff16145b5b90509392505050565b6000604051905090565b600080fd5b600080fd5b60007fffffffff0000000000000000000000000000000000000000000000000000000082169050919050565b611dcf81611d9a565b8114611dda57600080fd5b50565b600081359050611dec81611dc6565b92915050565b600060208284031215611e0857611e07611d90565b5b6000611e1684828501611ddd565b91505092915050565b60008115159050919050565b611e3481611e1f565b82525050565b6000602082019050611e4f6000830184611e2b565b92915050565b600081519050919050565b600082825260208201905092915050565b60005b83811015611e8f578082015181840152602081019050611e74565b60008484015250505050565b6000601f19601f8301169050919050565b6000611eb782611e55565b611ec18185611e60565b9350611ed1818560208601611e71565b611eda81611e9b565b840191505092915050565b60006020820190508181036000830152611eff8184611eac565b905092915050565b6000819050919050565b611f1a81611f07565b8114611f2557600080fd5b50565b600081359050611f3781611f11565b92915050565b600060208284031215611f5357611f52611d90565b5b6000611f6184828501611f28565b91505092915050565b600073ffffffffffffffffffffffffffffffffffffffff82169050919050565b6000611f9582611f6a565b9050919050565b611fa581611f8a565b82525050565b6000602082019050611fc06000830184611f9c565b92915050565b611fcf81611f8a565b8114611fda57600080fd5b50565b600081359050611fec81611fc6565b92915050565b6000806040838503121561200957612008611d90565b5b600061201785828601611fdd565b925050602061202885828601611f28565b9150509250929050565b61203b81611f07565b82525050565b60006020820190506120566000830184612032565b92915050565b60008060006060848603121561207557612074611d90565b5b600061208386828701611fdd565b935050602061209486828701611fdd565b92505060406120a586828701611f28565b9150509250925092565b6000819050919050565b60006120d46120cf6120ca84611f6a565b6120af565b611f6a565b9050919050565b60006120e6826120b9565b9050919050565b60006120f8826120db565b9050919050565b612108816120ed565b82525050565b600060208201905061212360008301846120ff565b92915050565b60006020828403121561213f5761213e611d90565b5b600061214d84828501611fdd565b91505092915050565b61215f81611e1f565b811461216a57600080fd5b50565b60008135905061217c81612156565b92915050565b6000806040838503121561219957612198611d90565b5b60006121a785828601611fdd565b92505060206121b88582860161216d565b9150509250929050565b600080fd5b600080fd5b7f4e487b7100000000000000000000000000000000000000000000000000000000600052604160045260246000fd5b61220482611e9b565b810181811067ffffffffffffffff82111715612223576122226121cc565b5b80604052505050565b6000612236611d86565b905061224282826121fb565b919050565b600067ffffffffffffffff821115612262576122616121cc565b5b61226b82611e9b565b9050602081019050919050565b82818337600083830152505050565b600061229a61229584612247565b61222c565b9050828152602081018484840111156122b6576122b56121c7565b5b6122c1848285612278565b509392505050565b600082601f8301126122de576122dd6121c2565b5b81356122ee848260208601612287565b91505092915050565b6000806000806080858703121561231157612310611d90565b5b600061231f87828801611fdd565b945050602061233087828801611fdd565b935050604061234187828801611f28565b925050606085013567ffffffffffffffff81111561236257612361611d95565b5b61236e878288016122c9565b91505092959194509250565b6000806040838503121561239157612390611d90565b5b600061239f85828601611fdd565b92505060206123b085828601611fdd565b9150509250929050565b7f4e487b7100000000000000000000000000000000000000000000000000000000600052602260045260246000fd5b6000600282049050600182168061240157607f821691505b602082108103612414576124136123ba565b5b50919050565b7f4e487b7100000000000000000000000000000000000000000000000000000000600052601160045260246000fd5b600061245482611f07565b91507fffffffffffffffffffffffffffffffffffffffffffffffffffffffffffffffff82036124865761248561241a565b5b600182019050919050565b60006060820190506124a66000830186611f9c565b6124b36020830185611f9c565b6124c06040830184612032565b949350505050565b6000815190506124d781612156565b92915050565b6000602082840312156124f3576124f2611d90565b5b6000612501848285016124c8565b91505092915050565b7f5061796d656e74204661696c6564000000000000000000000000000000000000600082015250565b6000612540600e83611e60565b915061254b8261250a565b602082019050919050565b6000602082019050818103600083015261256f81612533565b9050919050565b600060608201905061258b6000830186611f9c565b6125986020830185612032565b6125a56040830184611f9c565b949350505050565b60006040820190506125c26000830185611f9c565b6125cf6020830184612032565b9392505050565b7f4e487b7100000000000000000000000000000000000000000000000000000000600052603260045260246000fd5b600081905092915050565b600061261b82611e55565b6126258185612605565b9350612635818560208601611e71565b80840191505092915050565b600061264d8285612610565b91506126598284612610565b91508190509392505050565b600081519050919050565b600082825260208201905092915050565b600061268c82612665565b6126968185612670565b93506126a6818560208601611e71565b6126af81611e9b565b840191505092915050565b60006080820190506126cf6000830187611f9c565b6126dc6020830186611f9c565b6126e96040830185612032565b81810360608301526126fb8184612681565b905095945050505050565b60008151905061271581611dc6565b92915050565b60006020828403121561273157612730611d90565b5b600061273f84828501612706565b91505092915050565b7f4e487b7100000000000000000000000000000000000000000000000000000000600052601260045260246000fd5b600061278282611f07565b915061278d83611f07565b92508282039050818111156127a5576127a461241a565b5b92915050565b7f4e487b7100000000000000000000000000000000000000000000000000000000600052603160045260246000fdfea2646970667358221220f8f4c386c56e24e132294dee9def5391554483d5811458113fb2f298898f66a964736f6c63430008140033",
  "linkReferences": {},
  "deployedLinkReferences": {}
}